{
  "transactions": [
    {
      "hash": "0x1d696c5550ff73a7c0b93a135591977657e91f4c63af724149458048e34e6a1a",
      "transactionType": "CALL",
      "contractName": null,
      "contractAddress": "0xe19ce0acf70dbd7ff9cb80715f84ab0fd72b57ac",
      "function": "approve(address,uint256)",
      "arguments": [
        "0xC23470d6A96BB96461789b032905e7CE8634d163",
        "10000000000000000000000"
      ],
      "transaction": {
        "from": "0xfabcc4b22ffea25d01ac23c5d225d7b27cb1b6b8",
        "to": "0xe19ce0acf70dbd7ff9cb80715f84ab0fd72b57ac",
        "gas": "0x108ad",
        "value": "0x0",
        "input": "0x095ea7b3000000000000000000000000c23470d6a96bb96461789b032905e7ce8634d16300000000000000000000000000000000000000000000021e19e0c9bab2400000",
        "nonce": "0x7",
        "chainId": "0xe34"
      },
      "additionalContracts": [],
      "isFixedGasLimit": false
    },
    {
      "hash": "0x46eb082f0434b4eb53234f98a0a48c229227c2d96dce2addc30c23e906aea545",
      "transactionType": "CALL",
      "contractName": null,
      "contractAddress": "0xc23470d6a96bb96461789b032905e7ce8634d163",
      "function": "deposit(uint256)",
      "arguments": [
        "100000000"
      ],
      "transaction": {
        "from": "0xfabcc4b22ffea25d01ac23c5d225d7b27cb1b6b8",
        "to": "0xc23470d6a96bb96461789b032905e7ce8634d163",
        "gas": "0x260da",
        "value": "0x0",
        "input": "0xb6b55f250000000000000000000000000000000000000000000000000000000005f5e100",
        "nonce": "0x8",
        "chainId": "0xe34"
      },
      "additionalContracts": [],
      "isFixedGasLimit": false
    }
  ],
  "receipts": [
    {
      "status": "0x1",
      "cumulativeGasUsed": "0x22f2f7",
      "logs": [
        {
          "address": "0xe19ce0acf70dbd7ff9cb80715f84ab0fd72b57ac",
          "topics": [
            "0x8c5be1e5ebec7d5bd14f71427d1e84f3dd0314c0f7b2291e5b200ac8c7c3b925",
            "0x000000000000000000000000fabcc4b22ffea25d01ac23c5d225d7b27cb1b6b8",
            "0x000000000000000000000000c23470d6a96bb96461789b032905e7ce8634d163"
          ],
          "data": "0x00000000000000000000000000000000000000000000021e19e0c9baac4a1f00",
          "blockHash": "0x4b2f469516336bb9024c550c47d069d4a4e8cfa0cdc65fe1eddbe71118b110ed",
          "blockNumber": "0x0",
          "blockTimestamp": "0x67b42da9",
          "transactionHash": "0x46eb082f0434b4eb53234f98a0a48c229227c2d96dce2addc30c23e906aea545",
          "transactionIndex": "0xb",
          "logIndex": "0x53",
          "removed": false
        },
        {
          "address": "0xe19ce0acf70dbd7ff9cb80715f84ab0fd72b57ac",
          "topics": [
            "0xddf252ad1be2c89b69c2b068fc378daa952ba7f163c4a11628f55a4df523b3ef",
            "0x000000000000000000000000fabcc4b22ffea25d01ac23c5d225d7b27cb1b6b8",
            "0x000000000000000000000000c23470d6a96bb96461789b032905e7ce8634d163"
          ],
          "data": "0x0000000000000000000000000000000000000000000000000000000005f5e100",
          "blockHash": "0x4b2f469516336bb9024c550c47d069d4a4e8cfa0cdc65fe1eddbe71118b110ed",
          "blockNumber": "0x0",
          "blockTimestamp": "0x67b42da9",
          "transactionHash": "0x46eb082f0434b4eb53234f98a0a48c229227c2d96dce2addc30c23e906aea545",
          "transactionIndex": "0xb",
          "logIndex": "0x54",
          "removed": false
        },
        {
          "address": "0xc23470d6a96bb96461789b032905e7ce8634d163",
          "topics": [
            "0xddf252ad1be2c89b69c2b068fc378daa952ba7f163c4a11628f55a4df523b3ef",
            "0x0000000000000000000000000000000000000000000000000000000000000000",
            "0x000000000000000000000000fabcc4b22ffea25d01ac23c5d225d7b27cb1b6b8"
          ],
          "data": "0x0000000000000000000000000000000000000000000000000000000005f5e100",
          "blockHash": "0x4b2f469516336bb9024c550c47d069d4a4e8cfa0cdc65fe1eddbe71118b110ed",
          "blockNumber": "0x0",
          "blockTimestamp": "0x67b42da9",
          "transactionHash": "0x46eb082f0434b4eb53234f98a0a48c229227c2d96dce2addc30c23e906aea545",
          "transactionIndex": "0xb",
          "logIndex": "0x55",
          "removed": false
        }
      ],
      "logsBloom": "0x00000000020000000000000000000000000000000000000000000000000000000000000000000000040000000000000000000000000100000000040000200000000000000000000040000008000000000000200000000000000000000000000000004000020000000000000000000800000002000000000000000010000000000000000000000000000400000000000000000000000000000000000000000000420000000000000000000000000000000000000000000000000040000000000000000002000000000000000000000000000000000000000000000000000020000010000000000000000000000000000000000000000004000000000000000000",
      "type": "0x0",
      "transactionHash": "0x46eb082f0434b4eb53234f98a0a48c229227c2d96dce2addc30c23e906aea545",
      "transactionIndex": "0xb",
      "blockHash": "0x4b2f469516336bb9024c550c47d069d4a4e8cfa0cdc65fe1eddbe71118b110ed",
      "blockNumber": "0x0",
      "gasUsed": "0x1b8cd",
      "effectiveGasPrice": "0x12d2",
      "from": "0xfabcc4b22ffea25d01ac23c5d225d7b27cb1b6b8",
      "to": "0xc23470d6a96bb96461789b032905e7ce8634d163",
      "contractAddress": null
    },
    {
      "status": "0x1",
      "cumulativeGasUsed": "0x347701",
      "logs": [
        {
          "address": "0xe19ce0acf70dbd7ff9cb80715f84ab0fd72b57ac",
          "topics": [
            "0x8c5be1e5ebec7d5bd14f71427d1e84f3dd0314c0f7b2291e5b200ac8c7c3b925",
            "0x000000000000000000000000fabcc4b22ffea25d01ac23c5d225d7b27cb1b6b8",
            "0x000000000000000000000000c23470d6a96bb96461789b032905e7ce8634d163"
          ],
          "data": "0x00000000000000000000000000000000000000000000021e19e0c9bab2400000",
          "blockHash": "0x2d0371a9b69d533063daa30ae47615a5652fe01c3b4fc9923f3a9e8a145879bd",
          "blockNumber": "0x0",
          "blockTimestamp": "0x67b42d9d",
          "transactionHash": "0x1d696c5550ff73a7c0b93a135591977657e91f4c63af724149458048e34e6a1a",
          "transactionIndex": "0x11",
          "logIndex": "0x66",
          "removed": false
        }
      ],
      "logsBloom": "0x00000000020000000000000000000000000000000000000000000000000000000000000000000000040000000000000000000000000100000000040000200000000000000000000040000000000000000000200000000000000000000000000000000000000000000000000000000000000002000000000000000000000000000000000000000000000400000000000000000000000000000000000000000000020000000000000000000000000000000000000000000000000000000000000000000000000000000000000000000000000000000000000000000000000000000010000000000000000000000000000000000000000004000000000000000000",
      "type": "0x0",
      "transactionHash": "0x1d696c5550ff73a7c0b93a135591977657e91f4c63af724149458048e34e6a1a",
      "transactionIndex": "0x11",
      "blockHash": "0x2d0371a9b69d533063daa30ae47615a5652fe01c3b4fc9923f3a9e8a145879bd",
      "blockNumber": "0x0",
      "gasUsed": "0xb4fa",
      "effectiveGasPrice": "0x12d2",
      "from": "0xfabcc4b22ffea25d01ac23c5d225d7b27cb1b6b8",
      "to": "0xe19ce0acf70dbd7ff9cb80715f84ab0fd72b57ac",
      "contractAddress": null
    }
  ],
  "libraries": [],
  "pending": [],
  "returns": {},
  "timestamp": 1739861420,
  "chain": 3636,
  "commit": "fe6e511"
}