{
  "transactions": [
    {
      "hash": "0xc7e9e3dd51ee26be94661b4557ae7080944ce14ed542f5a8d6445ca011c80cf1",
      "transactionType": "CREATE",
      "contractName": "Fractible",
      "contractAddress": "0x1591fb9156fa5340d0808ceaafb488559f4b1cb3",
      "function": null,
      "arguments": [
        "0xFaBcc4b22fFEa25D01AC23c5d225D7B27CB1B6B8",
        "0xe19cE0aCF70DBD7ff9Cb80715f84aB0Fd72B57AC",
        "SSK",
        "SSK",
        "18",
        "720000000000000000000000"
      ],
      "transaction": {
        "from": "0xfabcc4b22ffea25d01ac23c5d225d7b27cb1b6b8",
        "gas": "0x10d234",
        "value": "0x0",
        "input": "0x608060405234801562000010575f80fd5b5060405162000f3438038062000f34833981016040819052620000339162000182565b83836003620000438382620002bb565b506004620000528282620002bb565b5050600580546001600160a01b03199081166001600160a01b03998a161790915560068054909116969097169590951790955560079490945550506008805460ff191660ff909316929092179091555062000383565b80516001600160a01b0381168114620000bf575f80fd5b919050565b634e487b7160e01b5f52604160045260245ffd5b5f82601f830112620000e8575f80fd5b81516001600160401b0380821115620001055762000105620000c4565b604051601f8301601f19908116603f01168101908282118183101715620001305762000130620000c4565b816040528381526020925086838588010111156200014c575f80fd5b5f91505b838210156200016f578582018301518183018401529082019062000150565b5f93810190920192909252949350505050565b5f805f805f8060c0878903121562000198575f80fd5b620001a387620000a8565b9550620001b360208801620000a8565b60408801519095506001600160401b0380821115620001d0575f80fd5b620001de8a838b01620000d8565b95506060890151915080821115620001f4575f80fd5b506200020389828a01620000d8565b935050608087015160ff811681146200021a575f80fd5b8092505060a087015190509295509295509295565b600181811c908216806200024457607f821691505b6020821081036200026357634e487b7160e01b5f52602260045260245ffd5b50919050565b601f821115620002b6575f81815260208120601f850160051c81016020861015620002915750805b601f850160051c820191505b81811015620002b2578281556001016200029d565b5050505b505050565b81516001600160401b03811115620002d757620002d7620000c4565b620002ef81620002e884546200022f565b8462000269565b602080601f83116001811462000325575f84156200030d5750858301515b5f19600386901b1c1916600185901b178555620002b2565b5f85815260208120601f198616915b82811015620003555788860151825594840194600190910190840162000334565b50858210156200037357878501515f19600388901b60f8161c191681555b5050505050600190811b01905550565b610ba380620003915f395ff3fe608060405234801561000f575f80fd5b50600436106100fb575f3560e01c80638da5cb5b11610093578063b6b55f2511610063578063b6b55f251461020b578063c89039c51461021e578063d7c64e7f14610231578063dd62ed3e1461023a575f80fd5b80638da5cb5b146101bd57806395d89b41146101e8578063a035b1fe146101f0578063a9059cbb146101f8575f80fd5b80632e1a7d4d116100ce5780632e1a7d4d14610165578063313ce567146101785780634e71d92d1461018d57806370a0823114610195575f80fd5b806306fdde03146100ff578063095ea7b31461011d57806318160ddd1461014057806323b872dd14610152575b5f80fd5b610107610272565b60405161011491906109b7565b60405180910390f35b61013061012b366004610a1d565b610302565b6040519015158152602001610114565b6002545b604051908152602001610114565b610130610160366004610a45565b61031b565b610144610173366004610a7e565b61033e565b60085460405160ff9091168152602001610114565b610144610426565b6101446101a3366004610a95565b6001600160a01b03165f9081526020819052604090205490565b6005546101d0906001600160a01b031681565b6040516001600160a01b039091168152602001610114565b610107610562565b610144600181565b610130610206366004610a1d565b610571565b610144610219366004610a7e565b61057e565b6006546101d0906001600160a01b031681565b61014460075481565b610144610248366004610ab5565b6001600160a01b039182165f90815260016020908152604080832093909416825291909152205490565b60606003805461028190610ae6565b80601f01602080910402602001604051908101604052809291908181526020018280546102ad90610ae6565b80156102f85780601f106102cf576101008083540402835291602001916102f8565b820191905f5260205f20905b8154815290600101906020018083116102db57829003601f168201915b5050505050905090565b5f3361030f818585610669565b60019150505b92915050565b5f3361032885828561067b565b6103338585856106f6565b506001949350505050565b335f90815260208190526040812054808310156103a25760405162461bcd60e51b815260206004820152601d60248201527f5769746864726177696e67206d6f7265207468616e2042616c616e636500000060448201526064015b60405180910390fd5b6103ac3384610753565b60065460405163a9059cbb60e01b8152336004820152602481018590526001600160a01b039091169063a9059cbb906044016020604051808303815f875af11580156103fa573d5f803e3d5ffd5b505050506040513d601f19601f8201168201806040525081019061041e9190610b18565b509192915050565b6005545f906001600160a01b0316331461047a5760405162461bcd60e51b81526020600482015260156024820152742cb7ba9030b932903737ba103a34329027bbb732b960591b6044820152606401610399565b6006546040516370a0823160e01b81523060048201525f916001600160a01b0316906370a0823190602401602060405180830381865afa1580156104c0573d5f803e3d5ffd5b505050506040513d601f19601f820116820180604052508101906104e49190610b37565b60065460055460405163a9059cbb60e01b81526001600160a01b03918216600482015260248101849052929350169063a9059cbb906044016020604051808303815f875af1158015610538573d5f803e3d5ffd5b505050506040513d601f19601f8201168201806040525081019061055c9190610b18565b50919050565b60606004805461028190610ae6565b5f3361030f8185856106f6565b5f8061058960025490565b6007549091506105998483610b4e565b11156105df5760405162461bcd60e51b8152602060048201526015602482015274088cae0dee6d2e840dadee4ca40e8d0c2dc409ac2f605b1b6044820152606401610399565b6006546040516323b872dd60e01b8152336004820152306024820152604481018590526001600160a01b03909116906323b872dd906064016020604051808303815f875af1158015610633573d5f803e3d5ffd5b505050506040513d601f19601f820116820180604052508101906106579190610b18565b50610662338461078b565b5090919050565b61067683838360016107bf565b505050565b6001600160a01b038381165f908152600160209081526040808320938616835292905220545f1981146106f057818110156106e257604051637dc7a0d960e11b81526001600160a01b03841660048201526024810182905260448101839052606401610399565b6106f084848484035f6107bf565b50505050565b6001600160a01b03831661071f57604051634b637e8f60e11b81525f6004820152602401610399565b6001600160a01b0382166107485760405163ec442f0560e01b81525f6004820152602401610399565b610676838383610891565b6001600160a01b03821661077c57604051634b637e8f60e11b81525f6004820152602401610399565b610787825f83610891565b5050565b6001600160a01b0382166107b45760405163ec442f0560e01b81525f6004820152602401610399565b6107875f8383610891565b6001600160a01b0384166107e85760405163e602df0560e01b81525f6004820152602401610399565b6001600160a01b03831661081157604051634a1406b160e11b81525f6004820152602401610399565b6001600160a01b038085165f90815260016020908152604080832093871683529290522082905580156106f057826001600160a01b0316846001600160a01b03167f8c5be1e5ebec7d5bd14f71427d1e84f3dd0314c0f7b2291e5b200ac8c7c3b9258460405161088391815260200190565b60405180910390a350505050565b6001600160a01b0383166108bb578060025f8282546108b09190610b4e565b9091555061092b9050565b6001600160a01b0383165f908152602081905260409020548181101561090d5760405163391434e360e21b81526001600160a01b03851660048201526024810182905260448101839052606401610399565b6001600160a01b0384165f9081526020819052604090209082900390555b6001600160a01b03821661094757600280548290039055610965565b6001600160a01b0382165f9081526020819052604090208054820190555b816001600160a01b0316836001600160a01b03167fddf252ad1be2c89b69c2b068fc378daa952ba7f163c4a11628f55a4df523b3ef836040516109aa91815260200190565b60405180910390a3505050565b5f6020808352835180828501525f5b818110156109e2578581018301518582016040015282016109c6565b505f604082860101526040601f19601f8301168501019250505092915050565b80356001600160a01b0381168114610a18575f80fd5b919050565b5f8060408385031215610a2e575f80fd5b610a3783610a02565b946020939093013593505050565b5f805f60608486031215610a57575f80fd5b610a6084610a02565b9250610a6e60208501610a02565b9150604084013590509250925092565b5f60208284031215610a8e575f80fd5b5035919050565b5f60208284031215610aa5575f80fd5b610aae82610a02565b9392505050565b5f8060408385031215610ac6575f80fd5b610acf83610a02565b9150610add60208401610a02565b90509250929050565b600181811c90821680610afa57607f821691505b60208210810361055c57634e487b7160e01b5f52602260045260245ffd5b5f60208284031215610b28575f80fd5b81518015158114610aae575f80fd5b5f60208284031215610b47575f80fd5b5051919050565b8082018082111561031557634e487b7160e01b5f52601160045260245ffdfea264697066735822122031f259ead2ad4c159f6ea6a5d25346b5abe8e1873ea750638570053a515f0f9664736f6c63430008140033000000000000000000000000fabcc4b22ffea25d01ac23c5d225d7b27cb1b6b8000000000000000000000000e19ce0acf70dbd7ff9cb80715f84ab0fd72b57ac00000000000000000000000000000000000000000000000000000000000000c0000000000000000000000000000000000000000000000000000000000000010000000000000000000000000000000000000000000000000000000000000000120000000000000000000000000000000000000000000098774738bc8222000000000000000000000000000000000000000000000000000000000000000000000353534b0000000000000000000000000000000000000000000000000000000000000000000000000000000000000000000000000000000000000000000000000353534b0000000000000000000000000000000000000000000000000000000000",
        "nonce": "0x9",
        "chainId": "0xe34"
      },
      "additionalContracts": [],
      "isFixedGasLimit": false
    },
    {
      "hash": "0x0a4c1e97bd67d89afa7e6f3de54a59219ce312f0709ece3903f95ecfbdb0ac9e",
      "transactionType": "CALL",
      "contractName": null,
      "contractAddress": "0xe19ce0acf70dbd7ff9cb80715f84ab0fd72b57ac",
      "function": "approve(address,uint256)",
      "arguments": [
        "0x1591fB9156fa5340d0808CEaAfB488559f4b1CB3",
        "10000000000000000000000"
      ],
      "transaction": {
        "from": "0xfabcc4b22ffea25d01ac23c5d225d7b27cb1b6b8",
        "to": "0xe19ce0acf70dbd7ff9cb80715f84ab0fd72b57ac",
        "gas": "0x108ad",
        "value": "0x0",
        "input": "0x095ea7b30000000000000000000000001591fb9156fa5340d0808ceaafb488559f4b1cb300000000000000000000000000000000000000000000021e19e0c9bab2400000",
        "nonce": "0xa",
        "chainId": "0xe34"
      },
      "additionalContracts": [],
      "isFixedGasLimit": false
    },
    {
      "hash": "0xb1b85410ac0c06cae2e2f309f7953d969ad870e247f48cdf5f7089ea9132efce",
      "transactionType": "CALL",
      "contractName": "Fractible",
      "contractAddress": "0x1591fb9156fa5340d0808ceaafb488559f4b1cb3",
      "function": "deposit(uint256)",
      "arguments": [
        "5000000000000000000"
      ],
      "transaction": {
        "from": "0xfabcc4b22ffea25d01ac23c5d225d7b27cb1b6b8",
        "to": "0x1591fb9156fa5340d0808ceaafb488559f4b1cb3",
        "gas": "0x284e0",
        "value": "0x0",
        "input": "0xb6b55f250000000000000000000000000000000000000000000000004563918244f40000",
        "nonce": "0xb",
        "chainId": "0xe34"
      },
      "additionalContracts": [],
      "isFixedGasLimit": false
    }
  ],
  "receipts": [
    {
      "status": "0x1",
      "cumulativeGasUsed": "0x12462a",
      "logs": [
        {
          "address": "0xe19ce0acf70dbd7ff9cb80715f84ab0fd72b57ac",
          "topics": [
            "0x8c5be1e5ebec7d5bd14f71427d1e84f3dd0314c0f7b2291e5b200ac8c7c3b925",
            "0x000000000000000000000000fabcc4b22ffea25d01ac23c5d225d7b27cb1b6b8",
            "0x0000000000000000000000001591fb9156fa5340d0808ceaafb488559f4b1cb3"
          ],
          "data": "0x00000000000000000000000000000000000000000000021dd47d38386d4c0000",
          "blockHash": "0x57727e0b3e6541a5228ec850cb2baf1ad9e2cc30f22103d0c0e530e28e7684cc",
          "blockNumber": "0x0",
          "blockTimestamp": "0x67b42e7f",
          "transactionHash": "0xb1b85410ac0c06cae2e2f309f7953d969ad870e247f48cdf5f7089ea9132efce",
          "transactionIndex": "0xa",
          "logIndex": "0x2c",
          "removed": false
        },
        {
          "address": "0xe19ce0acf70dbd7ff9cb80715f84ab0fd72b57ac",
          "topics": [
            "0xddf252ad1be2c89b69c2b068fc378daa952ba7f163c4a11628f55a4df523b3ef",
            "0x000000000000000000000000fabcc4b22ffea25d01ac23c5d225d7b27cb1b6b8",
            "0x0000000000000000000000001591fb9156fa5340d0808ceaafb488559f4b1cb3"
          ],
          "data": "0x0000000000000000000000000000000000000000000000004563918244f40000",
          "blockHash": "0x57727e0b3e6541a5228ec850cb2baf1ad9e2cc30f22103d0c0e530e28e7684cc",
          "blockNumber": "0x0",
          "blockTimestamp": "0x67b42e7f",
          "transactionHash": "0xb1b85410ac0c06cae2e2f309f7953d969ad870e247f48cdf5f7089ea9132efce",
          "transactionIndex": "0xa",
          "logIndex": "0x2d",
          "removed": false
        },
        {
          "address": "0x1591fb9156fa5340d0808ceaafb488559f4b1cb3",
          "topics": [
            "0xddf252ad1be2c89b69c2b068fc378daa952ba7f163c4a11628f55a4df523b3ef",
            "0x0000000000000000000000000000000000000000000000000000000000000000",
            "0x000000000000000000000000fabcc4b22ffea25d01ac23c5d225d7b27cb1b6b8"
          ],
          "data": "0x0000000000000000000000000000000000000000000000004563918244f40000",
          "blockHash": "0x57727e0b3e6541a5228ec850cb2baf1ad9e2cc30f22103d0c0e530e28e7684cc",
          "blockNumber": "0x0",
          "blockTimestamp": "0x67b42e7f",
          "transactionHash": "0xb1b85410ac0c06cae2e2f309f7953d969ad870e247f48cdf5f7089ea9132efce",
          "transactionIndex": "0xa",
          "logIndex": "0x2e",
          "removed": false
        }
      ],
      "logsBloom": "0x00000000020000000000000000000001000000000000000000000000000000000000000000000000000000000000000000000000000100000000000000200000000000000000000040000008000000000000200000000000000000000000000000000000020000000000000000400800000002040100000000000010000000000000000000000000000000000000000000000000000000000000000000000000020000000000000000000000000000000000000000000400000000000000000020000002000000000000000000000000000000000000000000000000000020000010000000000000000000000000000000000000000004000000000000000000",
      "type": "0x0",
      "transactionHash": "0xb1b85410ac0c06cae2e2f309f7953d969ad870e247f48cdf5f7089ea9132efce",
      "transactionIndex": "0xa",
      "blockHash": "0x57727e0b3e6541a5228ec850cb2baf1ad9e2cc30f22103d0c0e530e28e7684cc",
      "blockNumber": "0x0",
      "gasUsed": "0x1b8f1",
      "effectiveGasPrice": "0x12da",
      "from": "0xfabcc4b22ffea25d01ac23c5d225d7b27cb1b6b8",
      "to": "0x1591fb9156fa5340d0808ceaafb488559f4b1cb3",
      "contractAddress": null
    },
    {
      "status": "0x1",
      "cumulativeGasUsed": "0x43029c",
      "logs": [],
      "logsBloom": "0x00000000000000000000000000000000000000000000000000000000000000000000000000000000000000000000000000000000000000000000000000000000000000000000000000000000000000000000000000000000000000000000000000000000000000000000000000000000000000000000000000000000000000000000000000000000000000000000000000000000000000000000000000000000000000000000000000000000000000000000000000000000000000000000000000000000000000000000000000000000000000000000000000000000000000000000000000000000000000000000000000000000000000000000000000000000",
      "type": "0x0",
      "transactionHash": "0xc7e9e3dd51ee26be94661b4557ae7080944ce14ed542f5a8d6445ca011c80cf1",
      "transactionIndex": "0x17",
      "blockHash": "0x9d0f3bf2de7ec2b640d0207a81ee6e24d5eb0ccc178b0006ed84b7553e696ded",
      "blockNumber": "0x0",
      "gasUsed": "0xcf077",
      "effectiveGasPrice": "0x12da",
      "from": "0xfabcc4b22ffea25d01ac23c5d225d7b27cb1b6b8",
      "to": null,
      "contractAddress": "0x1591fb9156fa5340d0808ceaafb488559f4b1cb3"
    },
    {
      "status": "0x1",
      "cumulativeGasUsed": "0x2255af",
      "logs": [
        {
          "address": "0xe19ce0acf70dbd7ff9cb80715f84ab0fd72b57ac",
          "topics": [
            "0x8c5be1e5ebec7d5bd14f71427d1e84f3dd0314c0f7b2291e5b200ac8c7c3b925",
            "0x000000000000000000000000fabcc4b22ffea25d01ac23c5d225d7b27cb1b6b8",
            "0x0000000000000000000000001591fb9156fa5340d0808ceaafb488559f4b1cb3"
          ],
          "data": "0x00000000000000000000000000000000000000000000021e19e0c9bab2400000",
          "blockHash": "0xf5aba9c3896d50392b655907ccfd3085145457f985b4233a08a41684c4f12d12",
          "blockNumber": "0x0",
          "blockTimestamp": "0x67b42e79",
          "transactionHash": "0x0a4c1e97bd67d89afa7e6f3de54a59219ce312f0709ece3903f95ecfbdb0ac9e",
          "transactionIndex": "0x18",
          "logIndex": "0x4f",
          "removed": false
        }
      ],
      "logsBloom": "0x00000000020000000000000000000000000000000000000000000000000000000000000000000000000000000000000000000000000100000000000000200000000000000000000040000000000000000000200000000000000000000000000000000000000000000000000000400000000002040000000000000000000000000000000000000000000000000000000000000000000000000000000000000000020000000000000000000000000000000000000000000400000000000000000000000000000000000000000000000000000000000000000000000000000000000010000000000000000000000000000000000000000004000000000000000000",
      "type": "0x0",
      "transactionHash": "0x0a4c1e97bd67d89afa7e6f3de54a59219ce312f0709ece3903f95ecfbdb0ac9e",
      "transactionIndex": "0x18",
      "blockHash": "0xf5aba9c3896d50392b655907ccfd3085145457f985b4233a08a41684c4f12d12",
      "blockNumber": "0x0",
      "gasUsed": "0xb4fa",
      "effectiveGasPrice": "0x12da",
      "from": "0xfabcc4b22ffea25d01ac23c5d225d7b27cb1b6b8",
      "to": "0xe19ce0acf70dbd7ff9cb80715f84ab0fd72b57ac",
      "contractAddress": null
    }
  ],
  "libraries": [],
  "pending": [],
  "returns": {},
  "timestamp": 1739861636,
  "chain": 3636,
  "commit": "fe6e511"
}